:100000000C9424010C9443010C9450010C94410174
:100010000C9441010C9441010C9441010C945D013C
:100020000C9441010C9441010C9441010C94410148
:100030000C9441010C9441010C9441010C94410138
:100040000C9441010C9441010C9441010C94410128
:100050000C9441010C9441010C9441010C94410118
:100060000C9441010C944101000000000000005F6D
:1000700000000007000700147F147F14242A7F2A41
:10008000122313086462364955225000050300000C
:10009000001C2241000041221C0014083E081408E4
:1000A000083E0808005030000008080808080060F2
:1000B00060000020100804023E5149453E00427F86
:1000C000400042615149462141454B311814127F8D
:1000D0001027454545393C4A494930017109050316
:1000E0003649494936064949291E0036360000007E
:1000F0005636000008142241001414141414004150
:100100002214080201510906324979413E7E11113B
:10011000117E7F494949363E414141227F4141227A
:100120001C7F494949417F090909013E4149497AF2
:100130007F0808087F00417F41002040413F017F48
:10014000081422417F404040407F020C027F7F0420
:1001500008107F3E4141413E7F090909063E415159
:10016000215E7F09192946464949493101017F012C
:10017000013F4040403F1F2040201F3F4038403F4C
:100180006314081463070870080761514945430068
:100190007F41410002040810200041417F00040219
:1001A0000102044040404040000102040020545439
:1001B00054787F48444438384444442038444448C0
:1001C0007F3854545418087E0901020C5252523E92
:1001D0007F0804047800447D40002040443D007FB7
:1001E0001028440000417F40007C041804787C08FB
:1001F00004047838444444387C1414140808141453
:10020000187C7C080404084854545420043F44409B
:10021000203C4040207C1C2040201C3C4030403C86
:1002200044281028440C5050503C4464544C440022
:100230000836410000007F00000041360800100829
:10024000081008000000000011241FBECFEFD8E006
:10025000DEBFCDBF11E0A0E0B1E0E4ECFCE002C005
:1002600005900D92A431B107D9F723E0A4E1B1E0E4
:1002700001C01D92A135B207E1F70E9427030C943B
:1002800060060C9400008F938FB78F939F9385B176
:1002900092E0892785B99F918F918FBF8F91189593
:1002A0008F938FB78F939F9385B194E0892785B9FA
:1002B0009F918F918FBF8F9118951F921FB61F929C
:1002C00011248F9380911401833638F080911501A9
:1002D000109214018F5F80931501809115018C336A
:1002E00038F010921501809116018F5F80931601EE
:1002F000809114018F5F809314018F911F901FBE16
:100300001F9018950F931F93CF93DF93CDB7DEB750
:1003100029970FB6F894DEBF0FBECDBF0E9423020F
:10032000809114011F928F93809115011F928F93DA
:10033000809116011F928F9385E091E09F938F9398
:100340008E010F5F1F4F1F930F930E948F036CE06E
:100350008CE00E940D0361E0C8010E94FD020E9432
:1003600012030FB6F894DEBF0FBECDBF29960FB6AD
:10037000F894DEBF0FBECDBFDF91CF911F910F91DB
:10038000089529986623A9F02B9A27E030E090E0A1
:10039000AC01022E02C0559547950A94E2F740FF42
:1003A0000AC02C9A2D9A2D982150310988F7299A44
:1003B00008952B98EACF2C98F5CF60E00C94C101FA
:1003C000CF93DF93219A229A239A249A259A2A9AE4
:1003D000299A8FE39CE90197F1F700C000002A9861
:1003E0009FEF2AE683E0915020408040E1F700C073
:1003F00000002A9A299881E20E94DD0183E10E948F
:10040000DD0186E00E94DD0182EC0E94DD0180E2D8
:100410000E94DD0189E00E94DD0180E80E94DD018B
:1004200080E40E94DD01C8EFD1E061E080E00E943D
:10043000C1012197D1F788E00E94DD018CE0DF91B6
:10044000CF910C94DD0180E80E94DD0180E40E94E0
:10045000DD0110924F0310925003E7E5F1E088EFC1
:1004600091E0DF019C011D9221503040E1F7089599
:10047000811103C084E20C94DD0180E2FCCF962F51
:10048000969596959695E82FF0E084E5989FE00D77
:10049000F11D1124E95AFE4F2081677081E090E040
:1004A00001C0880F6A95EAF7442319F0282B2083AE
:1004B000089580952823FBCF8F929F92AF92BF9291
:1004C000DF92EF92FF920F931F93CF93DF9300D0B1
:1004D00000D00F92CDB7DEB7E82FF62E80320CF4A5
:1004E0004DC0E05285E0E802B001112468597F4F09
:1004F00045E050E0CE0101960E9486038E010F5F19
:100500001F4F95E0F99E5001112487E0F89E4001AD
:100510001124E12CEA141B040CF463C080914F03F6
:100520008F5F9F2D990F990F9F0D890F80934F0318
:10053000843558F08091500310924F038F5F97E0FD
:10054000F99E800D112480935003809150038033D5
:1005500020F010924F03109250030F900F900F90C5
:100560000F900F90DF91CF911F910F91FF90EF901F
:10057000DF90BF90AF909F908F900895EE0FFF0B8C
:10058000E95EFE4F008111810115110509F0B9CF17
:1005900045E050E068E670E0ADCFED0D5E0D8E2DCC
:1005A0006F2D0E947A03D801A80FB11D2C9130E065
:1005B0008D2D0E947A0302C0359527958A95E2F722
:1005C00041E020FF40E06E2F852F0E943F02D39430
:1005D000E091500350914F03D8141904F4F2E394BE
:1005E00099CFD12CF5CFE82F803234F4EE0FFF0BEA
:1005F000E95EFE4F7183608308951F93CF93DF936D
:10060000162FEC018991811104C0DF91CF911F91C8
:100610000895612F0E945C02F5CF80934F03609391
:1006200050030895CF93DF9380E80E94DD0180E4BA
:100630000E94DD01C7E5D1E061E089910E94C1011E
:1006400083E0CF34D807C1F7DF91CF910895F894B4
:1006500057985698219A229A0E94E00128985F980C
:1006600083E08093690080916900886080936900CD
:100670008DB383608DBB7894C1E0D0E017EA0E940F
:1006800082014E9B22C02FEF81EE94E021508040EA
:100690009040E1F700C00000CD2BA1F01093B30013
:1006A0008091B00082608093B0008091B10087603B
:1006B0008093B10080917000826080937000D0E0E0
:1006C000C0E0DDCFC1E0D0E0DACF209719F40E947E
:1006D0008201D5CF809170008D7F809370000E9441
:1006E00082014F9BEFCF10921401109215011092CE
:1006F0001601EDCF991B79E004C0991F961708F0F9
:10070000961B881F7A95C9F780950895FB01DC0137
:1007100002C005900D9241505040D8F70895AEE0C8
:10072000B0E0E5E9F3E00C9437060D891E8986E018
:100730008C831A8309838FEF9FE79E838D83AE019D
:10074000475E5F4F6F89788DCE0101960E94B2039C
:100750002F813885020F131FF80110822E96E4E0D6
:100760000C945306AFE0B0E0E8EBF3E00C942906FC
:100770007C013B018A01DC0117961C921E921697A0
:1007800013968C9181FFBEC19AE0292EFE0131960D
:100790004F01D70113969C91F30193FD859193FF2F
:1007A00081913F01882309F444C1853239F493FDD6
:1007B000859193FF81913F01853229F4B70190E043
:1007C0000E949B05E6CFB12C412C512CBFE1B51501
:1007D00038F08B3209F188F4803201F1833221F153
:1007E00057FC3AC020ED280F2A3040F556FE1FC0B6
:1007F000B29C200D1124B22E06C08D3291F08033B0
:1008000079F7689450F8F30193FD859193FF8191F6
:100810003F018111DBCF20C0689451F8689452F8F1
:10082000F2CF689453F8EFCF689454F8ECCF429C21
:10083000200D1124422E689455F8E5CF8E3229F40C
:1008400056FCF7C0689456F8DECF8C3619F46894DD
:1008500057F8D9CF8836B9F2982F9F7D95549330A9
:10086000C0F0833681F18337A1F1833509F05BC095
:10087000D801CD90DD908D016B2D70E056FC02C04B
:100880006FEF7FEFC6010E9485055C01689457F801
:100890000AC00C5F1F4FEFE3E983AA24A394B12C95
:1008A0006401E89457F853FE29C0342CA114B10414
:1008B00051F5332009F46DCFB70180E290E00E943A
:1008C0009B053A94F6CFD8018C9189830E5F1F4F18
:1008D000E4CFF801C190D1908F016B2D70E056FCF0
:1008E00002C06FEF7FEFC6010E9490055C01D9CF77
:1008F000B70180E290E00E949B054A944A141B04D1
:1009000009F0B0F7D2CFF60157FC859157FE8191DF
:100910006F01B70190E00E949B0531103A94B1E05D
:10092000AB1AB108C3CF843619F0893609F071C00B
:10093000F80157FE67C061917191819191918F018A
:10094000E52DEF76DE2E97FF09C090958095709586
:1009500061957F4F8F4F9F4F6894D7F82AE030E022
:10096000A4010E94CB05C82EC818AC2C5D2CD6FE65
:100970000CC0E89450F8CB1440F4D4FE05C0D2FC6F
:1009800003C05D2D5E7E552EAB2C54FE93C0FE0140
:10099000EC0DF11D8081803309F085C0652D697EE5
:1009A000562E752D7870372E53FC93C050FE8DC097
:1009B000BC2CA41410F4B40CBA1854FE90C0B701A7
:1009C00080E390E00E949B0552FE07C088E751FC3F
:1009D00088E590E0B7010E949B05CB1408F48BC01A
:1009E000CA94D12C8FEFC81AD80AC80CD91CD601CA
:1009F0008E916D01B70190E00E949B058C149D04BF
:100A0000B1F757CF61917191072E000C880B990BAC
:100A100096CFD52CE894D4F82AE0853729F1F52D26
:100A2000F97FDF2E8037A1F058F48835A1F08F369A
:100A3000D1F0F701868197812F96E2E10C9445066B
:100A40008837B9F7D4FE02C06894D2F820E10CC010
:100A50006894D4F8F7CF54FE03C02F2F2660D22E0F
:100A600020E132E002C028E030E0F801D7FE15C0F6
:100A700041915191619171914C875D876E877F871C
:100A80008F01A4016C857D858E859F850E94CB0595
:100A9000C82EC818E894D7F868CF81919191AC011D
:100AA00070E060E0E9CF52FC02C0A3947ACFA39437
:100AB000A39477CF852D867809F473CFF6CFB7014D
:100AC00080E290E00E949B05A394A414C0F3312C13
:100AD00074CF342C3A18A41408F46FCFF8CF852DB6
:100AE000867809F47ACF8BE251FE80E257FC8DE2E2
:100AF000B70190E070CFB70180E390E00E949B05C2
:100B0000BA946BCF8FEF9FEF97CFFC0105906150A8
:100B100070400110D8F7809590958E0F9F1F089513
:100B2000FC016150704001900110D8F780959095BC
:100B30008E0F9F1F08950F931F93CF93DF93182F4E
:100B4000092FEB018B8181FD09C01FEF0FEF812F72
:100B5000902FDF91CF911F910F91089582FF14C0C4
:100B60002E813F818C819D81281739073CF4E881D3
:100B7000F981CF0101969983888310838E819F81AB
:100B800001969F838E83E3CFE885F985812F0995B0
:100B9000892BA1F3DACFFA01AA27283051F12031AD
:100BA00081F1E8946F936E7F6E5F7F4F8F4F9F4F01
:100BB000AF4FB1E03ED0B4E03CD0670F781F891F43
:100BC0009A1FA11D680F791F8A1F911DA11D6A0F11
:100BD000711D811D911DA11D20D009F468943F91C4
:100BE0002AE0269F11243019305D3193DEF6CF01C3
:100BF0000895462F4770405D4193B3E00FD0C9F789
:100C0000F6CF462F4F70405D4A3318F0495D31FDF5
:100C10004052419302D0A9F7EACFB4E0A695979548
:100C2000879577956795BA95C9F70097610571051E
:100C300008959B01AC010A2E069457954795379568
:100C40002795BA95C9F7620F731F841F951FA01DC2
:100C500008952F923F924F925F926F927F928F9260
:100C60009F92AF92BF92CF92DF92EF92FF920F933B
:100C70001F93CF93DF93CDB7DEB7CA1BDB0B0FB645
:100C8000F894DEBF0FBECDBF09942A883988488802
:100C90005F846E847D848C849B84AA84B984C88498
:100CA000DF80EE80FD800C811B81AA81B981CE0F8F
:100CB000D11D0FB6F894DEBF0FBECDBFED01089574
:040CC000F894FFCFD6
:100CC4001024E02410253032643A253032643A2569
:040CD4003032640056
:00000001FF
